{
  "_format": "hh-sol-artifact-1",
  "contractName": "MyEpicNFT",
  "sourceName": "contracts/MyEpicNFT.sol",
  "abi": [
    {
      "inputs": [],
      "stateMutability": "nonpayable",
      "type": "constructor"
    },
    {
      "anonymous": false,
      "inputs": [
        {
          "indexed": true,
          "internalType": "address",
          "name": "owner",
          "type": "address"
        },
        {
          "indexed": true,
          "internalType": "address",
          "name": "approved",
          "type": "address"
        },
        {
          "indexed": true,
          "internalType": "uint256",
          "name": "tokenId",
          "type": "uint256"
        }
      ],
      "name": "Approval",
      "type": "event"
    },
    {
      "anonymous": false,
      "inputs": [
        {
          "indexed": true,
          "internalType": "address",
          "name": "owner",
          "type": "address"
        },
        {
          "indexed": true,
          "internalType": "address",
          "name": "operator",
          "type": "address"
        },
        {
          "indexed": false,
          "internalType": "bool",
          "name": "approved",
          "type": "bool"
        }
      ],
      "name": "ApprovalForAll",
      "type": "event"
    },
    {
      "anonymous": false,
      "inputs": [
        {
          "indexed": false,
          "internalType": "address",
          "name": "sender",
          "type": "address"
        },
        {
          "indexed": false,
          "internalType": "uint256",
          "name": "tokenId",
          "type": "uint256"
        }
      ],
      "name": "NewEpicNFTMinted",
      "type": "event"
    },
    {
      "anonymous": false,
      "inputs": [
        {
          "indexed": true,
          "internalType": "address",
          "name": "from",
          "type": "address"
        },
        {
          "indexed": true,
          "internalType": "address",
          "name": "to",
          "type": "address"
        },
        {
          "indexed": true,
          "internalType": "uint256",
          "name": "tokenId",
          "type": "uint256"
        }
      ],
      "name": "Transfer",
      "type": "event"
    },
    {
      "inputs": [
        {
          "internalType": "address",
          "name": "to",
          "type": "address"
        },
        {
          "internalType": "uint256",
          "name": "tokenId",
          "type": "uint256"
        }
      ],
      "name": "approve",
      "outputs": [],
      "stateMutability": "nonpayable",
      "type": "function"
    },
    {
      "inputs": [
        {
          "internalType": "address",
          "name": "owner",
          "type": "address"
        }
      ],
      "name": "balanceOf",
      "outputs": [
        {
          "internalType": "uint256",
          "name": "",
          "type": "uint256"
        }
      ],
      "stateMutability": "view",
      "type": "function"
    },
    {
      "inputs": [
        {
          "internalType": "uint256",
          "name": "tokenId",
          "type": "uint256"
        }
      ],
      "name": "getApproved",
      "outputs": [
        {
          "internalType": "address",
          "name": "",
          "type": "address"
        }
      ],
      "stateMutability": "view",
      "type": "function"
    },
    {
      "inputs": [],
      "name": "getTotalMintedNFTs",
      "outputs": [
        {
          "internalType": "uint256",
          "name": "",
          "type": "uint256"
        }
      ],
      "stateMutability": "view",
      "type": "function"
    },
    {
      "inputs": [
        {
          "internalType": "address",
          "name": "owner",
          "type": "address"
        },
        {
          "internalType": "address",
          "name": "operator",
          "type": "address"
        }
      ],
      "name": "isApprovedForAll",
      "outputs": [
        {
          "internalType": "bool",
          "name": "",
          "type": "bool"
        }
      ],
      "stateMutability": "view",
      "type": "function"
    },
    {
      "inputs": [],
      "name": "makeAnEpicNFT",
      "outputs": [],
      "stateMutability": "nonpayable",
      "type": "function"
    },
    {
      "inputs": [],
      "name": "name",
      "outputs": [
        {
          "internalType": "string",
          "name": "",
          "type": "string"
        }
      ],
      "stateMutability": "view",
      "type": "function"
    },
    {
      "inputs": [
        {
          "internalType": "uint256",
          "name": "tokenId",
          "type": "uint256"
        }
      ],
      "name": "ownerOf",
      "outputs": [
        {
          "internalType": "address",
          "name": "",
          "type": "address"
        }
      ],
      "stateMutability": "view",
      "type": "function"
    },
    {
      "inputs": [
        {
          "internalType": "uint256",
          "name": "tokenId",
          "type": "uint256"
        }
      ],
      "name": "pickRandomName",
      "outputs": [
        {
          "internalType": "string",
          "name": "",
          "type": "string"
        }
      ],
      "stateMutability": "view",
      "type": "function"
    },
    {
      "inputs": [
        {
          "internalType": "uint256",
          "name": "tokenId",
          "type": "uint256"
        }
      ],
      "name": "randomBackGroundColor",
      "outputs": [
        {
          "internalType": "string",
          "name": "",
          "type": "string"
        }
      ],
      "stateMutability": "view",
      "type": "function"
    },
    {
      "inputs": [
        {
          "internalType": "uint256",
          "name": "tokenId",
          "type": "uint256"
        }
      ],
      "name": "randomWordColor",
      "outputs": [
        {
          "internalType": "string",
          "name": "",
          "type": "string"
        }
      ],
      "stateMutability": "view",
      "type": "function"
    },
    {
      "inputs": [
        {
          "internalType": "address",
          "name": "from",
          "type": "address"
        },
        {
          "internalType": "address",
          "name": "to",
          "type": "address"
        },
        {
          "internalType": "uint256",
          "name": "tokenId",
          "type": "uint256"
        }
      ],
      "name": "safeTransferFrom",
      "outputs": [],
      "stateMutability": "nonpayable",
      "type": "function"
    },
    {
      "inputs": [
        {
          "internalType": "address",
          "name": "from",
          "type": "address"
        },
        {
          "internalType": "address",
          "name": "to",
          "type": "address"
        },
        {
          "internalType": "uint256",
          "name": "tokenId",
          "type": "uint256"
        },
        {
          "internalType": "bytes",
          "name": "data",
          "type": "bytes"
        }
      ],
      "name": "safeTransferFrom",
      "outputs": [],
      "stateMutability": "nonpayable",
      "type": "function"
    },
    {
      "inputs": [
        {
          "internalType": "address",
          "name": "operator",
          "type": "address"
        },
        {
          "internalType": "bool",
          "name": "approved",
          "type": "bool"
        }
      ],
      "name": "setApprovalForAll",
      "outputs": [],
      "stateMutability": "nonpayable",
      "type": "function"
    },
    {
      "inputs": [
        {
          "internalType": "bytes4",
          "name": "interfaceId",
          "type": "bytes4"
        }
      ],
      "name": "supportsInterface",
      "outputs": [
        {
          "internalType": "bool",
          "name": "",
          "type": "bool"
        }
      ],
      "stateMutability": "view",
      "type": "function"
    },
    {
      "inputs": [],
      "name": "symbol",
      "outputs": [
        {
          "internalType": "string",
          "name": "",
          "type": "string"
        }
      ],
      "stateMutability": "view",
      "type": "function"
    },
    {
      "inputs": [
        {
          "internalType": "uint256",
          "name": "tokenId",
          "type": "uint256"
        }
      ],
      "name": "tokenURI",
      "outputs": [
        {
          "internalType": "string",
          "name": "",
          "type": "string"
        }
      ],
      "stateMutability": "view",
      "type": "function"
    },
    {
      "inputs": [
        {
          "internalType": "address",
          "name": "from",
          "type": "address"
        },
        {
          "internalType": "address",
          "name": "to",
          "type": "address"
        },
        {
          "internalType": "uint256",
          "name": "tokenId",
          "type": "uint256"
        }
      ],
      "name": "transferFrom",
      "outputs": [],
      "stateMutability": "nonpayable",
      "type": "function"
    }
  ],
  "bytecode": "0x60806040526040518061014001604052806040518060400160405280600781526020017f537563636573730000000000000000000000000000000000000000000000000081525081526020016040518060400160405280600881526020017f4164646974696f6e00000000000000000000000000000000000000000000000081525081526020016040518060400160405280600981526020017f506f6c6c7574696f6e000000000000000000000000000000000000000000000081525081526020016040518060400160405280600881526020017f4465636973696f6e00000000000000000000000000000000000000000000000081525081526020016040518060400160405280600a81526020017f466f756e646174696f6e0000000000000000000000000000000000000000000081525081526020016040518060400160405280600981526020017f4d61726b6574696e67000000000000000000000000000000000000000000000081525081526020016040518060400160405280600881526020017f537472616e67657200000000000000000000000000000000000000000000000081525081526020016040518060400160405280600a81526020017f54656c65766973696f6e0000000000000000000000000000000000000000000081525081526020016040518060400160405280600b81526020017f496e666f726d6174696f6e00000000000000000000000000000000000000000081525081526020016040518060400160405280600b81526020017f53757065726d61726b6574000000000000000000000000000000000000000000815250815250600890600a6200026e92919062000b0f565b506040518061014001604052806040518060400160405280600a81526020017f446966666963756c74790000000000000000000000000000000000000000000081525081526020016040518060400160405280600481526020017f4c6f73730000000000000000000000000000000000000000000000000000000081525081526020016040518060400160405280600581526020017f546f70696300000000000000000000000000000000000000000000000000000081525081526020016040518060400160405280600681526020017f496e73656374000000000000000000000000000000000000000000000000000081525081526020016040518060400160405280600481526020017f4c616b650000000000000000000000000000000000000000000000000000000081525081526020016040518060400160405280600581526020017f50686f6e6500000000000000000000000000000000000000000000000000000081525081526020016040518060400160405280600381526020017f456172000000000000000000000000000000000000000000000000000000000081525081526020016040518060400160405280600b81526020017f5265636f676e6974696f6e00000000000000000000000000000000000000000081525081526020016040518060400160405280600a81526020017f44657072657373696f6e0000000000000000000000000000000000000000000081525081526020016040518060400160405280600581526020017f4d6f6e7468000000000000000000000000000000000000000000000000000000815250815250600990600a620004d992919062000b0f565b506040518061014001604052806040518060400160405280600881526020017f4261736562616c6c00000000000000000000000000000000000000000000000081525081526020016040518060400160405280600a81526020017f50726f66657373696f6e0000000000000000000000000000000000000000000081525081526020016040518060400160405280600681526020017f54656e6e6973000000000000000000000000000000000000000000000000000081525081526020016040518060400160405280600681526020017f4167656e6379000000000000000000000000000000000000000000000000000081525081526020016040518060400160405280600881526020017f456d706c6f79656500000000000000000000000000000000000000000000000081525081526020016040518060400160405280600581526020017f486f74656c00000000000000000000000000000000000000000000000000000081525081526020016040518060400160405280600481526020017f426565720000000000000000000000000000000000000000000000000000000081525081526020016040518060400160405280600981526020017f436f6d706c61696e74000000000000000000000000000000000000000000000081525081526020016040518060400160405280600881526020017f53686f7070696e6700000000000000000000000000000000000000000000000081525081526020016040518060400160405280600b81526020017f496d6167696e6174696f6e000000000000000000000000000000000000000000815250815250600a90600a6200074492919062000b0f565b506040518061010001604052806040518060400160405280600581526020017f626c61636b00000000000000000000000000000000000000000000000000000081525081526020016040518060400160405280600581526020017f677265656e00000000000000000000000000000000000000000000000000000081525081526020016040518060400160405280600681526020017f79656c6c6f77000000000000000000000000000000000000000000000000000081525081526020016040518060400160405280600481526020017f626c75650000000000000000000000000000000000000000000000000000000081525081526020016040518060400160405280600381526020017f726564000000000000000000000000000000000000000000000000000000000081525081526020016040518060400160405280600581526020017f776869746500000000000000000000000000000000000000000000000000000081525081526020016040518060400160405280600681526020017f707572706c65000000000000000000000000000000000000000000000000000081525081526020016040518060400160405280600681526020017f6f72616e67650000000000000000000000000000000000000000000000000000815250815250600b9060086200093992919062000b76565b506032600c556000600d553480156200095157600080fd5b506040518060400160405280600e81526020017f52616e646f6d4e6f756e734e46540000000000000000000000000000000000008152506040518060400160405280600981526020017f52414e444e4f554e5300000000000000000000000000000000000000000000008152508160009080519060200190620009d692919062000bdd565b508060019080519060200190620009ef92919062000bdd565b50505062000a3d6040518060400160405280601781526020017f5468697320697320616e204e465420436f6e747261637400000000000000000081525062000a4360201b620011521760201c565b62000e28565b62000ae38160405160240162000a5a919062000d3c565b6040516020818303038152906040527f41304fac000000000000000000000000000000000000000000000000000000007bffffffffffffffffffffffffffffffffffffffffffffffffffffffff19166020820180517bffffffffffffffffffffffffffffffffffffffffffffffffffffffff838183161783525050505062000ae660201b60201c565b50565b60008151905060006a636f6e736f6c652e6c6f679050602083016000808483855afa5050505050565b82805482825590600052602060002090810192821562000b63579160200282015b8281111562000b6257825182908051906020019062000b5192919062000bdd565b509160200191906001019062000b30565b5b50905062000b72919062000c6e565b5090565b82805482825590600052602060002090810192821562000bca579160200282015b8281111562000bc957825182908051906020019062000bb892919062000bdd565b509160200191906001019062000b97565b5b50905062000bd9919062000c6e565b5090565b82805462000beb9062000db2565b90600052602060002090601f01602090048101928262000c0f576000855562000c5b565b82601f1062000c2a57805160ff191683800117855562000c5b565b8280016001018555821562000c5b579182015b8281111562000c5a57825182559160200191906001019062000c3d565b5b50905062000c6a919062000c96565b5090565b5b8082111562000c92576000818162000c88919062000cb5565b5060010162000c6f565b5090565b5b8082111562000cb157600081600090555060010162000c97565b5090565b50805462000cc39062000db2565b6000825580601f1062000cd7575062000cf8565b601f01602090049060005260206000209081019062000cf7919062000c96565b5b50565b600062000d088262000d60565b62000d14818562000d6b565b935062000d2681856020860162000d7c565b62000d318162000e17565b840191505092915050565b6000602082019050818103600083015262000d58818462000cfb565b905092915050565b600081519050919050565b600082825260208201905092915050565b60005b8381101562000d9c57808201518184015260208101905062000d7f565b8381111562000dac576000848401525b50505050565b6000600282049050600182168062000dcb57607f821691505b6020821081141562000de25762000de162000de8565b5b50919050565b7f4e487b7100000000000000000000000000000000000000000000000000000000600052602260045260246000fd5b6000601f19601f8301169050919050565b613ab88062000e386000396000f3fe608060405234801561001057600080fd5b50600436106101165760003560e01c806370a08231116100a2578063b88d4fde11610071578063b88d4fde14610305578063ba9d1e3a14610321578063c87b56dd14610351578063de9d132f14610381578063e985e9c51461038b57610116565b806370a082311461026b57806395d89b411461029b578063a22cb465146102b9578063b5b8fbe5146102d557610116565b80631e2a7b91116100e95780631e2a7b91146101b557806323b872dd146101e557806342842e0e146102015780635a2e65041461021d5780636352211e1461023b57610116565b806301ffc9a71461011b57806306fdde031461014b578063081812fc14610169578063095ea7b314610199575b600080fd5b6101356004803603810190610130919061250e565b6103bb565b6040516101429190612cdb565b60405180910390f35b61015361049d565b6040516101609190612cf6565b60405180910390f35b610183600480360381019061017e9190612560565b61052f565b6040516101909190612c4b565b60405180910390f35b6101b360048036038101906101ae91906124d2565b610575565b005b6101cf60048036038101906101ca9190612560565b61068d565b6040516101dc9190612cf6565b60405180910390f35b6101ff60048036038101906101fa91906123cc565b610762565b005b61021b600480360381019061021691906123cc565b6107c2565b005b6102256107e2565b6040516102329190612ed6565b60405180910390f35b61025560048036038101906102509190612560565b6107ec565b6040516102629190612c4b565b60405180910390f35b61028560048036038101906102809190612367565b61089e565b6040516102929190612ed6565b60405180910390f35b6102a3610956565b6040516102b09190612cf6565b60405180910390f35b6102d360048036038101906102ce9190612496565b6109e8565b005b6102ef60048036038101906102ea9190612560565b6109fe565b6040516102fc9190612cf6565b60405180910390f35b61031f600480360381019061031a919061241b565b610c2f565b005b61033b60048036038101906103369190612560565b610c91565b6040516103489190612cf6565b60405180910390f35b61036b60048036038101906103669190612560565b610d66565b6040516103789190612cf6565b60405180910390f35b610389610e79565b005b6103a560048036038101906103a09190612390565b6110be565b6040516103b29190612cdb565b60405180910390f35b60007f80ac58cd000000000000000000000000000000000000000000000000000000007bffffffffffffffffffffffffffffffffffffffffffffffffffffffff1916827bffffffffffffffffffffffffffffffffffffffffffffffffffffffff1916148061048657507f5b5e139f000000000000000000000000000000000000000000000000000000007bffffffffffffffffffffffffffffffffffffffffffffffffffffffff1916827bffffffffffffffffffffffffffffffffffffffffffffffffffffffff1916145b806104965750610495826111eb565b5b9050919050565b6060600080546104ac9061316a565b80601f01602080910402602001604051908101604052809291908181526020018280546104d89061316a565b80156105255780601f106104fa57610100808354040283529160200191610525565b820191906000526020600020905b81548152906001019060200180831161050857829003601f168201915b5050505050905090565b600061053a82611255565b6004600083815260200190815260200160002060009054906101000a900473ffffffffffffffffffffffffffffffffffffffff169050919050565b6000610580826107ec565b90508073ffffffffffffffffffffffffffffffffffffffff168373ffffffffffffffffffffffffffffffffffffffff1614156105f1576040517f08c379a00000000000000000000000000000000000000000000000000000000081526004016105e890612e96565b60405180910390fd5b8073ffffffffffffffffffffffffffffffffffffffff166106106112a0565b73ffffffffffffffffffffffffffffffffffffffff16148061063f575061063e816106396112a0565b6110be565b5b61067e576040517f08c379a000000000000000000000000000000000000000000000000000000000815260040161067590612e36565b60405180910390fd5b61068883836112a8565b505050565b6060600061069a83611361565b6040516020016106aa9190612b5b565b6040516020818303038152906040526040516020016106c99190612a43565b6040516020818303038152906040528051906020012060001c9050600b80549050816106f59190613216565b9050600b8181548110610731577f4e487b7100000000000000000000000000000000000000000000000000000000600052603260045260246000fd5b9060005260206000200160405160200161074b9190612aad565b604051602081830303815290604052915050919050565b61077361076d6112a0565b8261150e565b6107b2576040517f08c379a00000000000000000000000000000000000000000000000000000000081526004016107a990612eb6565b60405180910390fd5b6107bd8383836115a3565b505050565b6107dd83838360405180602001604052806000815250610c2f565b505050565b6000600d54905090565b6000806002600084815260200190815260200160002060009054906101000a900473ffffffffffffffffffffffffffffffffffffffff169050600073ffffffffffffffffffffffffffffffffffffffff168173ffffffffffffffffffffffffffffffffffffffff161415610895576040517f08c379a000000000000000000000000000000000000000000000000000000000815260040161088c90612e76565b60405180910390fd5b80915050919050565b60008073ffffffffffffffffffffffffffffffffffffffff168273ffffffffffffffffffffffffffffffffffffffff16141561090f576040517f08c379a000000000000000000000000000000000000000000000000000000000815260040161090690612df6565b60405180910390fd5b600360008373ffffffffffffffffffffffffffffffffffffffff1673ffffffffffffffffffffffffffffffffffffffff168152602001908152602001600020549050919050565b6060600180546109659061316a565b80601f01602080910402602001604051908101604052809291908181526020018280546109919061316a565b80156109de5780601f106109b3576101008083540402835291602001916109de565b820191906000526020600020905b8154815290600101906020018083116109c157829003601f168201915b5050505050905090565b6109fa6109f36112a0565b838361180a565b5050565b60606000610a0b83611361565b604051602001610a1b9190612bc2565b604051602081830303815290604052604051602001610a3a9190612a43565b6040516020818303038152906040528051906020012060001c90506000610a6084611361565b604051602001610a709190612b39565b604051602081830303815290604052604051602001610a8f9190612a43565b6040516020818303038152906040528051906020012060001c90506000610ab585611361565b604051602001610ac59190612af5565b604051602081830303815290604052604051602001610ae49190612a43565b6040516020818303038152906040528051906020012060001c905060088054905083610b109190613216565b925060098054905082610b239190613216565b9150600a8054905081610b369190613216565b905060088381548110610b72577f4e487b7100000000000000000000000000000000000000000000000000000000600052603260045260246000fd5b9060005260206000200160098381548110610bb6577f4e487b7100000000000000000000000000000000000000000000000000000000600052603260045260246000fd5b90600052602060002001600a8381548110610bfa577f4e487b7100000000000000000000000000000000000000000000000000000000600052603260045260246000fd5b90600052602060002001604051602001610c1693929190612ac4565b6040516020818303038152906040529350505050919050565b610c40610c3a6112a0565b8361150e565b610c7f576040517f08c379a0000000000000000000000000000000000000000000000000000000008152600401610c7690612eb6565b60405180910390fd5b610c8b84848484611977565b50505050565b60606000610c9e83611361565b604051602001610cae9190612b17565b604051602081830303815290604052604051602001610ccd9190612a43565b6040516020818303038152906040528051906020012060001c9050600b8054905081610cf99190613216565b9050600b8181548110610d35577f4e487b7100000000000000000000000000000000000000000000000000000000600052603260045260246000fd5b90600052602060002001604051602001610d4f9190612aad565b604051602081830303815290604052915050919050565b6060610d7182611255565b6000600660008481526020019081526020016000208054610d919061316a565b80601f0160208091040260200160405190810160405280929190818152602001828054610dbd9061316a565b8015610e0a5780601f10610ddf57610100808354040283529160200191610e0a565b820191906000526020600020905b815481529060010190602001808311610ded57829003601f168201915b505050505090506000610e1b6119d3565b9050600081511415610e31578192505050610e74565b600082511115610e66578082604051602001610e4e929190612a5a565b60405160208183030381529060405292505050610e74565b610e6f846119ea565b925050505b919050565b600c54600d5410610e8957600080fd5b6000610e956007611a52565b90506000610ea28261068d565b90506000610eaf83610c91565b905060008390505b818051906020012083805190602001201415610eec57600184610eda9190612f9f565b9050610ee58161068d565b9250610eb7565b60008284604051602001610f01929190612be4565b60405160208183030381529060405290506000610f1d866109fe565b905060008282604051602001610f34929190612a7e565b60405160208183030381529060405290506000610f7983610f5484611a60565b604051602001610f65929190612b7d565b604051602081830303815290604052611a60565b9050600081604051602001610f8e9190612c29565b6040516020818303038152906040529050610fdd6040518060400160405280601581526020017f0a2d2d2d2d2d2d2d2d2d2d2d2d2d2d2d2d2d2d2d2d0000000000000000000000815250611152565b610fe681611152565b6110246040518060400160405280601581526020017f2d2d2d2d2d2d2d2d2d2d2d2d2d2d2d2d2d2d2d2d0a0000000000000000000000815250611152565b61102e338a611c1e565b6110388982611c3c565b61105b604051806060016040528060258152602001613a1e602591398a33611cb0565b6110656007611d4f565b7febb98688741ffa4c7589bf325de30cf7becb63de567842e1ccdb6cb949fdc82c338a604051611096929190612cb2565b60405180910390a16001600d546110ad9190612f9f565b600d81905550505050505050505050565b6000600560008473ffffffffffffffffffffffffffffffffffffffff1673ffffffffffffffffffffffffffffffffffffffff16815260200190815260200160002060008373ffffffffffffffffffffffffffffffffffffffff1673ffffffffffffffffffffffffffffffffffffffff16815260200190815260200160002060009054906101000a900460ff16905092915050565b6111e8816040516024016111669190612cf6565b6040516020818303038152906040527f41304fac000000000000000000000000000000000000000000000000000000007bffffffffffffffffffffffffffffffffffffffffffffffffffffffff19166020820180517bffffffffffffffffffffffffffffffffffffffffffffffffffffffff8381831617835250505050611d65565b50565b60007f01ffc9a7000000000000000000000000000000000000000000000000000000007bffffffffffffffffffffffffffffffffffffffffffffffffffffffff1916827bffffffffffffffffffffffffffffffffffffffffffffffffffffffff1916149050919050565b61125e81611d8e565b61129d576040517f08c379a000000000000000000000000000000000000000000000000000000000815260040161129490612e76565b60405180910390fd5b50565b600033905090565b816004600083815260200190815260200160002060006101000a81548173ffffffffffffffffffffffffffffffffffffffff021916908373ffffffffffffffffffffffffffffffffffffffff160217905550808273ffffffffffffffffffffffffffffffffffffffff1661131b836107ec565b73ffffffffffffffffffffffffffffffffffffffff167f8c5be1e5ebec7d5bd14f71427d1e84f3dd0314c0f7b2291e5b200ac8c7c3b92560405160405180910390a45050565b606060008214156113a9576040518060400160405280600181526020017f30000000000000000000000000000000000000000000000000000000000000008152509050611509565b600082905060005b600082146113db5780806113c4906131cd565b915050600a826113d49190612ff5565b91506113b1565b60008167ffffffffffffffff81111561141d577f4e487b7100000000000000000000000000000000000000000000000000000000600052604160045260246000fd5b6040519080825280601f01601f19166020018201604052801561144f5781602001600182028036833780820191505090505b5090505b60008514611502576001826114689190613080565b9150600a856114779190613216565b60306114839190612f9f565b60f81b8183815181106114bf577f4e487b7100000000000000000000000000000000000000000000000000000000600052603260045260246000fd5b60200101907effffffffffffffffffffffffffffffffffffffffffffffffffffffffffffff1916908160001a905350600a856114fb9190612ff5565b9450611453565b8093505050505b919050565b60008061151a836107ec565b90508073ffffffffffffffffffffffffffffffffffffffff168473ffffffffffffffffffffffffffffffffffffffff16148061155c575061155b81856110be565b5b8061159a57508373ffffffffffffffffffffffffffffffffffffffff166115828461052f565b73ffffffffffffffffffffffffffffffffffffffff16145b91505092915050565b8273ffffffffffffffffffffffffffffffffffffffff166115c3826107ec565b73ffffffffffffffffffffffffffffffffffffffff1614611619576040517f08c379a000000000000000000000000000000000000000000000000000000000815260040161161090612d76565b60405180910390fd5b600073ffffffffffffffffffffffffffffffffffffffff168273ffffffffffffffffffffffffffffffffffffffff161415611689576040517f08c379a000000000000000000000000000000000000000000000000000000000815260040161168090612db6565b60405180910390fd5b611694838383611dfa565b61169f6000826112a8565b6001600360008573ffffffffffffffffffffffffffffffffffffffff1673ffffffffffffffffffffffffffffffffffffffff16815260200190815260200160002060008282546116ef9190613080565b925050819055506001600360008473ffffffffffffffffffffffffffffffffffffffff1673ffffffffffffffffffffffffffffffffffffffff16815260200190815260200160002060008282546117469190612f9f565b92505081905550816002600083815260200190815260200160002060006101000a81548173ffffffffffffffffffffffffffffffffffffffff021916908373ffffffffffffffffffffffffffffffffffffffff160217905550808273ffffffffffffffffffffffffffffffffffffffff168473ffffffffffffffffffffffffffffffffffffffff167fddf252ad1be2c89b69c2b068fc378daa952ba7f163c4a11628f55a4df523b3ef60405160405180910390a4611805838383611dff565b505050565b8173ffffffffffffffffffffffffffffffffffffffff168373ffffffffffffffffffffffffffffffffffffffff161415611879576040517f08c379a000000000000000000000000000000000000000000000000000000000815260040161187090612dd6565b60405180910390fd5b80600560008573ffffffffffffffffffffffffffffffffffffffff1673ffffffffffffffffffffffffffffffffffffffff16815260200190815260200160002060008473ffffffffffffffffffffffffffffffffffffffff1673ffffffffffffffffffffffffffffffffffffffff16815260200190815260200160002060006101000a81548160ff0219169083151502179055508173ffffffffffffffffffffffffffffffffffffffff168373ffffffffffffffffffffffffffffffffffffffff167f17307eab39ab6107e8899845ad3d59bd9653f200f220920489ca2b5937696c318360405161196a9190612cdb565b60405180910390a3505050565b6119828484846115a3565b61198e84848484611e04565b6119cd576040517f08c379a00000000000000000000000000000000000000000000000000000000081526004016119c490612d56565b60405180910390fd5b50505050565b606060405180602001604052806000815250905090565b60606119f582611255565b60006119ff6119d3565b90506000815111611a1f5760405180602001604052806000815250611a4a565b80611a2984611361565b604051602001611a3a929190612a5a565b6040516020818303038152906040525b915050919050565b600081600001549050919050565b60606000825190506000811415611a895760405180602001604052806000815250915050611c19565b60006003600283611a9a9190612f9f565b611aa49190612ff5565b6004611ab09190613026565b90506000602082611ac19190612f9f565b67ffffffffffffffff811115611b00577f4e487b7100000000000000000000000000000000000000000000000000000000600052604160045260246000fd5b6040519080825280601f01601f191660200182016040528015611b325781602001600182028036833780820191505090505b5090506000604051806060016040528060408152602001613a43604091399050600181016020830160005b86811015611bd65760038101905062ffffff818a015116603f8160121c168401518060081b905060ff603f83600c1c1686015116810190508060081b905060ff603f8360061c1686015116810190508060081b905060ff603f831686015116810190508060e01b90508084526004840193505050611b5d565b506003860660018114611bf05760028114611c0057611c0b565b613d3d60f01b6002830352611c0b565b603d60f81b60018303525b508484525050819450505050505b919050565b611c38828260405180602001604052806000815250611f9b565b5050565b611c4582611d8e565b611c84576040517f08c379a0000000000000000000000000000000000000000000000000000000008152600401611c7b90612e16565b60405180910390fd5b80600660008481526020019081526020016000209080519060200190611cab9291906121f3565b505050565b611d4a838383604051602401611cc893929190612d18565b6040516020818303038152906040527fe3849f79000000000000000000000000000000000000000000000000000000007bffffffffffffffffffffffffffffffffffffffffffffffffffffffff19166020820180517bffffffffffffffffffffffffffffffffffffffffffffffffffffffff8381831617835250505050611d65565b505050565b6001816000016000828254019250508190555050565b60008151905060006a636f6e736f6c652e6c6f679050602083016000808483855afa5050505050565b60008073ffffffffffffffffffffffffffffffffffffffff166002600084815260200190815260200160002060009054906101000a900473ffffffffffffffffffffffffffffffffffffffff1673ffffffffffffffffffffffffffffffffffffffff1614159050919050565b505050565b505050565b6000611e258473ffffffffffffffffffffffffffffffffffffffff16611ff6565b15611f8e578373ffffffffffffffffffffffffffffffffffffffff1663150b7a02611e4e6112a0565b8786866040518563ffffffff1660e01b8152600401611e709493929190612c66565b602060405180830381600087803b158015611e8a57600080fd5b505af1925050508015611ebb57506040513d601f19601f82011682018060405250810190611eb89190612537565b60015b611f3e573d8060008114611eeb576040519150601f19603f3d011682016040523d82523d6000602084013e611ef0565b606091505b50600081511415611f36576040517f08c379a0000000000000000000000000000000000000000000000000000000008152600401611f2d90612d56565b60405180910390fd5b805181602001fd5b63150b7a0260e01b7bffffffffffffffffffffffffffffffffffffffffffffffffffffffff1916817bffffffffffffffffffffffffffffffffffffffffffffffffffffffff191614915050611f93565b600190505b949350505050565b611fa58383612019565b611fb26000848484611e04565b611ff1576040517f08c379a0000000000000000000000000000000000000000000000000000000008152600401611fe890612d56565b60405180910390fd5b505050565b6000808273ffffffffffffffffffffffffffffffffffffffff163b119050919050565b600073ffffffffffffffffffffffffffffffffffffffff168273ffffffffffffffffffffffffffffffffffffffff161415612089576040517f08c379a000000000000000000000000000000000000000000000000000000000815260040161208090612e56565b60405180910390fd5b61209281611d8e565b156120d2576040517f08c379a00000000000000000000000000000000000000000000000000000000081526004016120c990612d96565b60405180910390fd5b6120de60008383611dfa565b6001600360008473ffffffffffffffffffffffffffffffffffffffff1673ffffffffffffffffffffffffffffffffffffffff168152602001908152602001600020600082825461212e9190612f9f565b92505081905550816002600083815260200190815260200160002060006101000a81548173ffffffffffffffffffffffffffffffffffffffff021916908373ffffffffffffffffffffffffffffffffffffffff160217905550808273ffffffffffffffffffffffffffffffffffffffff16600073ffffffffffffffffffffffffffffffffffffffff167fddf252ad1be2c89b69c2b068fc378daa952ba7f163c4a11628f55a4df523b3ef60405160405180910390a46121ef60008383611dff565b5050565b8280546121ff9061316a565b90600052602060002090601f0160209004810192826122215760008555612268565b82601f1061223a57805160ff1916838001178555612268565b82800160010185558215612268579182015b8281111561226757825182559160200191906001019061224c565b5b5090506122759190612279565b5090565b5b8082111561229257600081600090555060010161227a565b5090565b60006122a96122a484612f16565b612ef1565b9050828152602081018484840111156122c157600080fd5b6122cc848285613128565b509392505050565b6000813590506122e3816139c1565b92915050565b6000813590506122f8816139d8565b92915050565b60008135905061230d816139ef565b92915050565b600081519050612322816139ef565b92915050565b600082601f83011261233957600080fd5b8135612349848260208601612296565b91505092915050565b60008135905061236181613a06565b92915050565b60006020828403121561237957600080fd5b6000612387848285016122d4565b91505092915050565b600080604083850312156123a357600080fd5b60006123b1858286016122d4565b92505060206123c2858286016122d4565b9150509250929050565b6000806000606084860312156123e157600080fd5b60006123ef868287016122d4565b9350506020612400868287016122d4565b925050604061241186828701612352565b9150509250925092565b6000806000806080858703121561243157600080fd5b600061243f878288016122d4565b9450506020612450878288016122d4565b935050604061246187828801612352565b925050606085013567ffffffffffffffff81111561247e57600080fd5b61248a87828801612328565b91505092959194509250565b600080604083850312156124a957600080fd5b60006124b7858286016122d4565b92505060206124c8858286016122e9565b9150509250929050565b600080604083850312156124e557600080fd5b60006124f3858286016122d4565b925050602061250485828601612352565b9150509250929050565b60006020828403121561252057600080fd5b600061252e848285016122fe565b91505092915050565b60006020828403121561254957600080fd5b600061255784828501612313565b91505092915050565b60006020828403121561257257600080fd5b600061258084828501612352565b91505092915050565b612592816130b4565b82525050565b6125a1816130c6565b82525050565b60006125b282612f5c565b6125bc8185612f72565b93506125cc818560208601613137565b6125d581613303565b840191505092915050565b60006125eb82612f67565b6125f58185612f83565b9350612605818560208601613137565b61260e81613303565b840191505092915050565b600061262482612f67565b61262e8185612f94565b935061263e818560208601613137565b80840191505092915050565b600081546126578161316a565b6126618186612f94565b9450600182166000811461267c576001811461268d576126c0565b60ff198316865281860193506126c0565b61269685612f47565b60005b838110156126b857815481890152600182019150602081019050612699565b838801955050505b50505092915050565b60006126d6603283612f83565b91506126e182613314565b604082019050919050565b60006126f9602583612f83565b915061270482613363565b604082019050919050565b600061271c601c83612f83565b9150612727826133b2565b602082019050919050565b600061273f600a83612f94565b915061274a826133db565b600a82019050919050565b6000612762600a83612f94565b915061276d82613404565b600a82019050919050565b6000612785602483612f83565b91506127908261342d565b604082019050919050565b60006127a8601983612f83565b91506127b38261347c565b602082019050919050565b60006127cb605783612f94565b91506127d6826134a5565b605782019050919050565b60006127ee600b83612f94565b91506127f98261351a565b600b82019050919050565b6000612811600d83612f94565b915061281c82613543565b600d82019050919050565b6000612834602983612f83565b915061283f8261356c565b604082019050919050565b6000612857602e83612f83565b9150612862826135bb565b604082019050919050565b600061287a600283612f94565b91506128858261360a565b600282019050919050565b600061289d603e83612f83565b91506128a882613633565b604082019050919050565b60006128c0602083612f83565b91506128cb82613682565b602082019050919050565b60006128e3601083612f94565b91506128ee826136ab565b601082019050919050565b6000612906600a83612f94565b9150612911826136d4565b600a82019050919050565b6000612929601883612f83565b9150612934826136fd565b602082019050919050565b600061294c602183612f83565b915061295782613726565b604082019050919050565b600061296f600a83612f94565b915061297a82613775565b600a82019050919050565b6000612992607683612f94565b915061299d8261379e565b607682019050919050565b60006129b5601d83612f94565b91506129c082613839565b601d82019050919050565b60006129d8606483612f94565b91506129e382613862565b606482019050919050565b60006129fb605683612f94565b9150612a06826138fd565b605682019050919050565b6000612a1e602e83612f83565b9150612a2982613972565b604082019050919050565b612a3d8161311e565b82525050565b6000612a4f8284612619565b915081905092915050565b6000612a668285612619565b9150612a728284612619565b91508190509392505050565b6000612a8a8285612619565b9150612a968284612619565b9150612aa182612804565b91508190509392505050565b6000612ab9828461264a565b915081905092915050565b6000612ad0828661264a565b9150612adc828561264a565b9150612ae8828461264a565b9150819050949350505050565b6000612b0082612732565b9150612b0c8284612619565b915081905092915050565b6000612b2282612755565b9150612b2e8284612619565b915081905092915050565b6000612b44826127e1565b9150612b508284612619565b915081905092915050565b6000612b66826128d6565b9150612b728284612619565b915081905092915050565b6000612b88826128f9565b9150612b948285612619565b9150612b9f826129cb565b9150612bab8284612619565b9150612bb68261286d565b91508190509392505050565b6000612bcd82612962565b9150612bd98284612619565b915081905092915050565b6000612bef82612985565b9150612bfb8285612619565b9150612c06826127be565b9150612c128284612619565b9150612c1d826129ee565b91508190509392505050565b6000612c34826129a8565b9150612c408284612619565b915081905092915050565b6000602082019050612c606000830184612589565b92915050565b6000608082019050612c7b6000830187612589565b612c886020830186612589565b612c956040830185612a34565b8181036060830152612ca781846125a7565b905095945050505050565b6000604082019050612cc76000830185612589565b612cd46020830184612a34565b9392505050565b6000602082019050612cf06000830184612598565b92915050565b60006020820190508181036000830152612d1081846125e0565b905092915050565b60006060820190508181036000830152612d3281866125e0565b9050612d416020830185612a34565b612d4e6040830184612589565b949350505050565b60006020820190508181036000830152612d6f816126c9565b9050919050565b60006020820190508181036000830152612d8f816126ec565b9050919050565b60006020820190508181036000830152612daf8161270f565b9050919050565b60006020820190508181036000830152612dcf81612778565b9050919050565b60006020820190508181036000830152612def8161279b565b9050919050565b60006020820190508181036000830152612e0f81612827565b9050919050565b60006020820190508181036000830152612e2f8161284a565b9050919050565b60006020820190508181036000830152612e4f81612890565b9050919050565b60006020820190508181036000830152612e6f816128b3565b9050919050565b60006020820190508181036000830152612e8f8161291c565b9050919050565b60006020820190508181036000830152612eaf8161293f565b9050919050565b60006020820190508181036000830152612ecf81612a11565b9050919050565b6000602082019050612eeb6000830184612a34565b92915050565b6000612efb612f0c565b9050612f07828261319c565b919050565b6000604051905090565b600067ffffffffffffffff821115612f3157612f306132d4565b5b612f3a82613303565b9050602081019050919050565b60008190508160005260206000209050919050565b600081519050919050565b600081519050919050565b600082825260208201905092915050565b600082825260208201905092915050565b600081905092915050565b6000612faa8261311e565b9150612fb58361311e565b9250827fffffffffffffffffffffffffffffffffffffffffffffffffffffffffffffffff03821115612fea57612fe9613247565b5b828201905092915050565b60006130008261311e565b915061300b8361311e565b92508261301b5761301a613276565b5b828204905092915050565b60006130318261311e565b915061303c8361311e565b9250817fffffffffffffffffffffffffffffffffffffffffffffffffffffffffffffffff048311821515161561307557613074613247565b5b828202905092915050565b600061308b8261311e565b91506130968361311e565b9250828210156130a9576130a8613247565b5b828203905092915050565b60006130bf826130fe565b9050919050565b60008115159050919050565b60007fffffffff0000000000000000000000000000000000000000000000000000000082169050919050565b600073ffffffffffffffffffffffffffffffffffffffff82169050919050565b6000819050919050565b82818337600083830152505050565b60005b8381101561315557808201518184015260208101905061313a565b83811115613164576000848401525b50505050565b6000600282049050600182168061318257607f821691505b60208210811415613196576131956132a5565b5b50919050565b6131a582613303565b810181811067ffffffffffffffff821117156131c4576131c36132d4565b5b80604052505050565b60006131d88261311e565b91507fffffffffffffffffffffffffffffffffffffffffffffffffffffffffffffffff82141561320b5761320a613247565b5b600182019050919050565b60006132218261311e565b915061322c8361311e565b92508261323c5761323b613276565b5b828206905092915050565b7f4e487b7100000000000000000000000000000000000000000000000000000000600052601160045260246000fd5b7f4e487b7100000000000000000000000000000000000000000000000000000000600052601260045260246000fd5b7f4e487b7100000000000000000000000000000000000000000000000000000000600052602260045260246000fd5b7f4e487b7100000000000000000000000000000000000000000000000000000000600052604160045260246000fd5b6000601f19601f8301169050919050565b7f4552433732313a207472616e7366657220746f206e6f6e20455243373231526560008201527f63656976657220696d706c656d656e7465720000000000000000000000000000602082015250565b7f4552433732313a207472616e736665722066726f6d20696e636f72726563742060008201527f6f776e6572000000000000000000000000000000000000000000000000000000602082015250565b7f4552433732313a20746f6b656e20616c7265616479206d696e74656400000000600082015250565b7f54484952445f574f524400000000000000000000000000000000000000000000600082015250565b7f574f52445f434f4c4f5200000000000000000000000000000000000000000000600082015250565b7f4552433732313a207472616e7366657220746f20746865207a65726f2061646460008201527f7265737300000000000000000000000000000000000000000000000000000000602082015250565b7f4552433732313a20617070726f766520746f2063616c6c657200000000000000600082015250565b7f3b20666f6e742d66616d696c793a2073657269663b20666f6e742d73697a653a60008201527f20323470783b207d3c2f7374796c653e3c726563742077696474683d2731303060208201527f2527206865696768743d2731303025272066696c6c3d27000000000000000000604082015250565b7f5345434f4e445f574f5244000000000000000000000000000000000000000000600082015250565b7f3c2f746578743e3c2f7376673e00000000000000000000000000000000000000600082015250565b7f4552433732313a2061646472657373207a65726f206973206e6f74206120766160008201527f6c6964206f776e65720000000000000000000000000000000000000000000000602082015250565b7f45524337323155524953746f726167653a2055524920736574206f66206e6f6e60008201527f6578697374656e7420746f6b656e000000000000000000000000000000000000602082015250565b7f227d000000000000000000000000000000000000000000000000000000000000600082015250565b7f4552433732313a20617070726f76652063616c6c6572206973206e6f7420746f60008201527f6b656e206f776e6572206e6f7220617070726f76656420666f7220616c6c0000602082015250565b7f4552433732313a206d696e7420746f20746865207a65726f2061646472657373600082015250565b7f4241434b47524f554e445f434f4c4f5200000000000000000000000000000000600082015250565b7f7b226e616d65223a202200000000000000000000000000000000000000000000600082015250565b7f4552433732313a20696e76616c696420746f6b656e2049440000000000000000600082015250565b7f4552433732313a20617070726f76616c20746f2063757272656e74206f776e6560008201527f7200000000000000000000000000000000000000000000000000000000000000602082015250565b7f46495253545f574f524400000000000000000000000000000000000000000000600082015250565b7f3c73766720786d6c6e733d27687474703a2f2f7777772e77332e6f72672f323060008201527f30302f73766727207072657365727665417370656374526174696f3d27784d6960208201527f6e594d696e206d656574272076696577426f783d27302030203335302033353060408201527f273e3c7374796c653e2e62617365207b2066696c6c3a00000000000000000000606082015250565b7f646174613a6170706c69636174696f6e2f6a736f6e3b6261736536342c000000600082015250565b7f222c20226465736372697074696f6e223a20224e465420436f6c6c656374696f60008201527f6e206f662072616e646f6d6c792067656e657261746564206e6f756e73222c2060208201527f22696d616765223a2022646174613a696d6167652f7376672b786d6c3b62617360408201527f6536342c00000000000000000000000000000000000000000000000000000000606082015250565b7f272f3e3c7465787420783d273530252720793d273530252720636c6173733d2760008201527f626173652720646f6d696e616e742d626173656c696e653d276d6964646c652760208201527f20746578742d616e63686f723d276d6964646c65273e00000000000000000000604082015250565b7f4552433732313a2063616c6c6572206973206e6f7420746f6b656e206f776e6560008201527f72206e6f7220617070726f766564000000000000000000000000000000000000602082015250565b6139ca816130b4565b81146139d557600080fd5b50565b6139e1816130c6565b81146139ec57600080fd5b50565b6139f8816130d2565b8114613a0357600080fd5b50565b613a0f8161311e565b8114613a1a57600080fd5b5056fe416e204e465420772f20494420257320686173206265656e206d696e74656420746f2025734142434445464748494a4b4c4d4e4f505152535455565758595a6162636465666768696a6b6c6d6e6f707172737475767778797a303132333435363738392b2fa26469706673582212200c92d07415ef5bf2b189cb355ad0ec26245f884fff585b6c17d12bef72f180db64736f6c63430008010033",
  "linkReferences": {},
  "deployedLinkReferences": {}
}